{
  "_format": "hh-sol-artifact-1",
  "contractName": "PrimarySale",
  "sourceName": "contracts/PrimarySale.sol",
  "abi": [
    {
      "inputs": [
        {
          "internalType": "address",
          "name": "_nft",
          "type": "address"
        },
        {
          "internalType": "address",
          "name": "_treasury",
          "type": "address"
        },
        {
          "internalType": "uint16",
          "name": "_feeBps",
          "type": "uint16"
        }
      ],
      "stateMutability": "nonpayable",
      "type": "constructor"
    },
    {
      "inputs": [],
      "name": "EnforcedPause",
      "type": "error"
    },
    {
      "inputs": [],
      "name": "ExpectedPause",
      "type": "error"
    },
    {
      "inputs": [],
      "name": "InvalidPrice",
      "type": "error"
    },
    {
      "inputs": [],
      "name": "NotApprovedForAll",
      "type": "error"
    },
    {
      "inputs": [],
      "name": "NotOwnerOfToken",
      "type": "error"
    },
    {
      "inputs": [
        {
          "internalType": "address",
          "name": "owner",
          "type": "address"
        }
      ],
      "name": "OwnableInvalidOwner",
      "type": "error"
    },
    {
      "inputs": [
        {
          "internalType": "address",
          "name": "account",
          "type": "address"
        }
      ],
      "name": "OwnableUnauthorizedAccount",
      "type": "error"
    },
    {
      "inputs": [
        {
          "internalType": "uint256",
          "name": "expected",
          "type": "uint256"
        },
        {
          "internalType": "uint256",
          "name": "sent",
          "type": "uint256"
        }
      ],
      "name": "WrongPayment",
      "type": "error"
    },
    {
      "anonymous": false,
      "inputs": [
        {
          "indexed": false,
          "internalType": "uint16",
          "name": "newFeeBps",
          "type": "uint16"
        }
      ],
      "name": "FeeBpsUpdated",
      "type": "event"
    },
    {
      "anonymous": false,
      "inputs": [
        {
          "indexed": true,
          "internalType": "uint256",
          "name": "tokenId",
          "type": "uint256"
        },
        {
          "indexed": false,
          "internalType": "uint256",
          "name": "price",
          "type": "uint256"
        }
      ],
      "name": "Listed",
      "type": "event"
    },
    {
      "anonymous": false,
      "inputs": [
        {
          "indexed": true,
          "internalType": "address",
          "name": "previousOwner",
          "type": "address"
        },
        {
          "indexed": true,
          "internalType": "address",
          "name": "newOwner",
          "type": "address"
        }
      ],
      "name": "OwnershipTransferred",
      "type": "event"
    },
    {
      "anonymous": false,
      "inputs": [
        {
          "indexed": false,
          "internalType": "address",
          "name": "account",
          "type": "address"
        }
      ],
      "name": "Paused",
      "type": "event"
    },
    {
      "anonymous": false,
      "inputs": [
        {
          "indexed": true,
          "internalType": "address",
          "name": "buyer",
          "type": "address"
        },
        {
          "indexed": true,
          "internalType": "uint256",
          "name": "tokenId",
          "type": "uint256"
        },
        {
          "indexed": false,
          "internalType": "uint256",
          "name": "price",
          "type": "uint256"
        },
        {
          "indexed": false,
          "internalType": "uint256",
          "name": "fee",
          "type": "uint256"
        },
        {
          "indexed": false,
          "internalType": "uint256",
          "name": "payout",
          "type": "uint256"
        }
      ],
      "name": "Purchased",
      "type": "event"
    },
    {
      "anonymous": false,
      "inputs": [
        {
          "indexed": true,
          "internalType": "address",
          "name": "newTreasury",
          "type": "address"
        }
      ],
      "name": "TreasuryUpdated",
      "type": "event"
    },
    {
      "anonymous": false,
      "inputs": [
        {
          "indexed": true,
          "internalType": "uint256",
          "name": "tokenId",
          "type": "uint256"
        }
      ],
      "name": "Unlisted",
      "type": "event"
    },
    {
      "anonymous": false,
      "inputs": [
        {
          "indexed": false,
          "internalType": "address",
          "name": "account",
          "type": "address"
        }
      ],
      "name": "Unpaused",
      "type": "event"
    },
    {
      "inputs": [
        {
          "internalType": "uint256",
          "name": "tokenId",
          "type": "uint256"
        }
      ],
      "name": "buy",
      "outputs": [],
      "stateMutability": "payable",
      "type": "function"
    },
    {
      "inputs": [],
      "name": "feeBps",
      "outputs": [
        {
          "internalType": "uint16",
          "name": "",
          "type": "uint16"
        }
      ],
      "stateMutability": "view",
      "type": "function"
    },
    {
      "inputs": [
        {
          "internalType": "uint256",
          "name": "tokenId",
          "type": "uint256"
        },
        {
          "internalType": "uint256",
          "name": "price",
          "type": "uint256"
        }
      ],
      "name": "list",
      "outputs": [],
      "stateMutability": "nonpayable",
      "type": "function"
    },
    {
      "inputs": [],
      "name": "nft",
      "outputs": [
        {
          "internalType": "contract IERC721",
          "name": "",
          "type": "address"
        }
      ],
      "stateMutability": "view",
      "type": "function"
    },
    {
      "inputs": [],
      "name": "owner",
      "outputs": [
        {
          "internalType": "address",
          "name": "",
          "type": "address"
        }
      ],
      "stateMutability": "view",
      "type": "function"
    },
    {
      "inputs": [],
      "name": "pause",
      "outputs": [],
      "stateMutability": "nonpayable",
      "type": "function"
    },
    {
      "inputs": [],
      "name": "paused",
      "outputs": [
        {
          "internalType": "bool",
          "name": "",
          "type": "bool"
        }
      ],
      "stateMutability": "view",
      "type": "function"
    },
    {
      "inputs": [
        {
          "internalType": "uint256",
          "name": "",
          "type": "uint256"
        }
      ],
      "name": "priceOf",
      "outputs": [
        {
          "internalType": "uint256",
          "name": "",
          "type": "uint256"
        }
      ],
      "stateMutability": "view",
      "type": "function"
    },
    {
      "inputs": [],
      "name": "renounceOwnership",
      "outputs": [],
      "stateMutability": "nonpayable",
      "type": "function"
    },
    {
      "inputs": [
        {
          "internalType": "uint16",
          "name": "_feeBps",
          "type": "uint16"
        }
      ],
      "name": "setFeeBps",
      "outputs": [],
      "stateMutability": "nonpayable",
      "type": "function"
    },
    {
      "inputs": [
        {
          "internalType": "address",
          "name": "_treasury",
          "type": "address"
        }
      ],
      "name": "setTreasury",
      "outputs": [],
      "stateMutability": "nonpayable",
      "type": "function"
    },
    {
      "inputs": [
        {
          "internalType": "address",
          "name": "newOwner",
          "type": "address"
        }
      ],
      "name": "transferOwnership",
      "outputs": [],
      "stateMutability": "nonpayable",
      "type": "function"
    },
    {
      "inputs": [],
      "name": "treasury",
      "outputs": [
        {
          "internalType": "address",
          "name": "",
          "type": "address"
        }
      ],
      "stateMutability": "view",
      "type": "function"
    },
    {
      "inputs": [
        {
          "internalType": "uint256",
          "name": "tokenId",
          "type": "uint256"
        }
      ],
      "name": "unlist",
      "outputs": [],
      "stateMutability": "nonpayable",
      "type": "function"
    },
    {
      "inputs": [],
      "name": "unpause",
      "outputs": [],
      "stateMutability": "nonpayable",
      "type": "function"
    },
    {
      "stateMutability": "payable",
      "type": "receive"
    }
  ],
  "bytecode": "0x60a060405234801561001057600080fd5b50604051610e92380380610e9283398101604081905261002f9161015e565b338061005657604051631e4fbdf760e01b8152600060048201526024015b60405180910390fd5b61005f816100f2565b506001600160a01b0383161580159061008057506001600160a01b03821615155b6100b85760405162461bcd60e51b81526020600482015260096024820152683d32b9379030b2323960b91b604482015260640161004d565b6001600160a01b039283166080526001805461ffff909216600160a01b026001600160b01b031990921692909316919091171790556101ac565b600080546001600160a01b038381166001600160a01b0319831681178455604051919092169283917f8be0079c531659141344cd1fd0a4f28419497f9722a3daafe3b4186f6b6457e09190a35050565b80516001600160a01b038116811461015957600080fd5b919050565b60008060006060848603121561017357600080fd5b61017c84610142565b925061018a60208501610142565b9150604084015161ffff811681146101a157600080fd5b809150509250925092565b608051610cb66101dc6000396000818161017b0152818161040d015281816104a101526106f30152610cb66000f3fe6080604052600436106100ec5760003560e01c8063715018a61161008a578063bf5a4dd311610059578063bf5a4dd3146102a2578063d96a094a146102c2578063f0f44260146102d5578063f2fde38b146102f557600080fd5b8063715018a61461021f5780638456cb59146102345780638da5cb5b14610249578063b9186d7d1461026757600080fd5b806347ccca02116100c657806347ccca021461016957806350fd7367146101b55780635c975abb146101d557806361d027b3146101ff57600080fd5b8063023b1fc9146100f857806324a9d8531461011a5780633f4ba83a1461015457600080fd5b366100f357005b600080fd5b34801561010457600080fd5b50610118610113366004610b41565b610315565b005b34801561012657600080fd5b5060015461013c90600160a01b900461ffff1681565b60405161ffff90911681526020015b60405180910390f35b34801561016057600080fd5b506101186103bd565b34801561017557600080fd5b5061019d7f000000000000000000000000000000000000000000000000000000000000000081565b6040516001600160a01b03909116815260200161014b565b3480156101c157600080fd5b506101186101d0366004610b6c565b6103cf565b3480156101e157600080fd5b50600054600160a01b900460ff16604051901515815260200161014b565b34801561020b57600080fd5b5060015461019d906001600160a01b031681565b34801561022b57600080fd5b506101186105dc565b34801561024057600080fd5b506101186105ee565b34801561025557600080fd5b506000546001600160a01b031661019d565b34801561027357600080fd5b50610294610282366004610b8e565b60026020526000908152604090205481565b60405190815260200161014b565b3480156102ae57600080fd5b506101186102bd366004610b8e565b6105fe565b6101186102d0366004610b8e565b610641565b3480156102e157600080fd5b506101186102f0366004610bbc565b610905565b34801561030157600080fd5b50610118610310366004610bbc565b610999565b61031d6109d7565b6103e88161ffff1611156103675760405162461bcd60e51b815260206004820152600c60248201526b0cccaca40e8dede40d0d2ced60a31b60448201526064015b60405180910390fd5b6001805461ffff60a01b1916600160a01b61ffff8416908102919091179091556040519081527f1582462fa18a3c32e1179d055ebefbaee59312efe6743b4d57fc45793b3066a79060200160405180910390a150565b6103c56109d7565b6103cd610a04565b565b6103d7610a59565b6103df6109d7565b6000546001600160a01b03166040516331a9108f60e11b8152600481018490526001600160a01b03918216917f00000000000000000000000000000000000000000000000000000000000000001690636352211e90602401602060405180830381865afa158015610454573d6000803e3d6000fd5b505050506040513d601f19601f820116820180604052508101906104789190610bd9565b6001600160a01b03161461049f5760405163130213c560e21b815260040160405180910390fd5b7f00000000000000000000000000000000000000000000000000000000000000006001600160a01b031663e985e9c56104e06000546001600160a01b031690565b6040516001600160e01b031960e084901b1681526001600160a01b039091166004820152306024820152604401602060405180830381865afa15801561052a573d6000803e3d6000fd5b505050506040513d601f19601f8201168201806040525081019061054e9190610bf6565b61056b5760405163cd7769ff60e01b815260040160405180910390fd5b8060000361058b5760405162bfc92160e01b815260040160405180910390fd5b600082815260026020526040908190208290555182907f1ea45e30b31292f9d7c5d37d275b2feca555f13f47dce0fdea2f47e8852ecd78906105d09084815260200190565b60405180910390a25050565b6105e46109d7565b6103cd6000610a84565b6105f66109d7565b6103cd610ad4565b6106066109d7565b6000818152600260205260408082208290555182917f6318005f6dc5a71d3e4ad5b4d1fe455ef3402d62b64573777af55bb6bfe3daab91a250565b610649610a59565b600081815260026020526040812054908190036106785760405162bfc92160e01b815260040160405180910390fd5b8034146106a157604051630374cb4760e21b81526004810182905234602482015260440161035e565b600154600090612710906106c090600160a01b900461ffff1684610c2e565b6106ca9190610c4b565b905060006106d88284610c6d565b60008581526002602052604081205590506001600160a01b037f0000000000000000000000000000000000000000000000000000000000000000166342842e0e61072a6000546001600160a01b031690565b6040516001600160e01b031960e084901b1681526001600160a01b03909116600482015233602482015260448101879052606401600060405180830381600087803b15801561077857600080fd5b505af115801561078c573d6000803e3d6000fd5b5050600154604051600093506001600160a01b03909116915083908381818185875af1925050503d80600081146107df576040519150601f19603f3d011682016040523d82523d6000602084013e6107e4565b606091505b50509050806108235760405162461bcd60e51b815260206004820152600b60248201526a1c185e5bdd5d0819985a5b60aa1b604482015260640161035e565b82156108b957600080546040516001600160a01b039091169085908381818185875af1925050503d8060008114610876576040519150601f19603f3d011682016040523d82523d6000602084013e61087b565b606091505b50509050806108b75760405162461bcd60e51b81526020600482015260086024820152671999594819985a5b60c21b604482015260640161035e565b505b6040805185815260208101859052908101839052859033907f5f5252e81556cf80e49da97ac40f17af2fb3b00e318b675ae93089f555bfa3809060600160405180910390a35050505050565b61090d6109d7565b6001600160a01b03811661094f5760405162461bcd60e51b81526020600482015260096024820152683d32b9379030b2323960b91b604482015260640161035e565b600180546001600160a01b0319166001600160a01b0383169081179091556040517f7dae230f18360d76a040c81f050aa14eb9d6dc7901b20fc5d855e2a20fe814d190600090a250565b6109a16109d7565b6001600160a01b0381166109cb57604051631e4fbdf760e01b81526000600482015260240161035e565b6109d481610a84565b50565b6000546001600160a01b031633146103cd5760405163118cdaa760e01b815233600482015260240161035e565b610a0c610b17565b6000805460ff60a01b191690557f5db9ee0a495bf2e6ff9c91a7834c1ba4fdd244a5e8aa4e537bd38aeae4b073aa335b6040516001600160a01b03909116815260200160405180910390a1565b600054600160a01b900460ff16156103cd5760405163d93c066560e01b815260040160405180910390fd5b600080546001600160a01b038381166001600160a01b0319831681178455604051919092169283917f8be0079c531659141344cd1fd0a4f28419497f9722a3daafe3b4186f6b6457e09190a35050565b610adc610a59565b6000805460ff60a01b1916600160a01b1790557f62e78cea01bee320cd4e420270b5ea74000d11b0c9f74754ebdbfc544b05a258610a3c3390565b600054600160a01b900460ff166103cd57604051638dfc202b60e01b815260040160405180910390fd5b600060208284031215610b5357600080fd5b813561ffff81168114610b6557600080fd5b9392505050565b60008060408385031215610b7f57600080fd5b50508035926020909101359150565b600060208284031215610ba057600080fd5b5035919050565b6001600160a01b03811681146109d457600080fd5b600060208284031215610bce57600080fd5b8135610b6581610ba7565b600060208284031215610beb57600080fd5b8151610b6581610ba7565b600060208284031215610c0857600080fd5b81518015158114610b6557600080fd5b634e487b7160e01b600052601160045260246000fd5b8082028115828204841417610c4557610c45610c18565b92915050565b600082610c6857634e487b7160e01b600052601260045260246000fd5b500490565b81810381811115610c4557610c45610c1856fea2646970667358221220f82e7fd2f4469a2df7387f57f237e4b9676aea2b88772728b6e243b7827c9e6464736f6c63430008140033",
  "linkReferences": {},
  "deployedLinkReferences": {}
}