{
  "_format": "hh-sol-artifact-1",
  "contractName": "FixedPriceSale",
  "sourceName": "contracts/FixedPriceSale.sol",
  "abi": [
    {
      "inputs": [
        {
          "internalType": "address",
          "name": "_nft",
          "type": "address"
        },
        {
          "internalType": "address",
          "name": "initialOwner",
          "type": "address"
        }
      ],
      "stateMutability": "nonpayable",
      "type": "constructor"
    },
    {
      "inputs": [
        {
          "internalType": "address",
          "name": "owner",
          "type": "address"
        }
      ],
      "name": "OwnableInvalidOwner",
      "type": "error"
    },
    {
      "inputs": [
        {
          "internalType": "address",
          "name": "account",
          "type": "address"
        }
      ],
      "name": "OwnableUnauthorizedAccount",
      "type": "error"
    },
    {
      "inputs": [],
      "name": "ReentrancyGuardReentrantCall",
      "type": "error"
    },
    {
      "anonymous": false,
      "inputs": [
        {
          "indexed": true,
          "internalType": "uint256",
          "name": "tokenId",
          "type": "uint256"
        },
        {
          "indexed": false,
          "internalType": "uint256",
          "name": "price",
          "type": "uint256"
        }
      ],
      "name": "Listed",
      "type": "event"
    },
    {
      "anonymous": false,
      "inputs": [
        {
          "indexed": true,
          "internalType": "address",
          "name": "previousOwner",
          "type": "address"
        },
        {
          "indexed": true,
          "internalType": "address",
          "name": "newOwner",
          "type": "address"
        }
      ],
      "name": "OwnershipTransferred",
      "type": "event"
    },
    {
      "anonymous": false,
      "inputs": [
        {
          "indexed": true,
          "internalType": "uint256",
          "name": "tokenId",
          "type": "uint256"
        },
        {
          "indexed": true,
          "internalType": "address",
          "name": "buyer",
          "type": "address"
        },
        {
          "indexed": false,
          "internalType": "uint256",
          "name": "price",
          "type": "uint256"
        }
      ],
      "name": "Purchased",
      "type": "event"
    },
    {
      "anonymous": false,
      "inputs": [
        {
          "indexed": true,
          "internalType": "uint256",
          "name": "tokenId",
          "type": "uint256"
        }
      ],
      "name": "Unlisted",
      "type": "event"
    },
    {
      "inputs": [
        {
          "internalType": "uint256",
          "name": "tokenId",
          "type": "uint256"
        }
      ],
      "name": "buy",
      "outputs": [],
      "stateMutability": "payable",
      "type": "function"
    },
    {
      "inputs": [
        {
          "internalType": "uint256",
          "name": "tokenId",
          "type": "uint256"
        },
        {
          "internalType": "uint256",
          "name": "priceWei",
          "type": "uint256"
        }
      ],
      "name": "list",
      "outputs": [],
      "stateMutability": "nonpayable",
      "type": "function"
    },
    {
      "inputs": [],
      "name": "nft",
      "outputs": [
        {
          "internalType": "contract IERC721",
          "name": "",
          "type": "address"
        }
      ],
      "stateMutability": "view",
      "type": "function"
    },
    {
      "inputs": [],
      "name": "owner",
      "outputs": [
        {
          "internalType": "address",
          "name": "",
          "type": "address"
        }
      ],
      "stateMutability": "view",
      "type": "function"
    },
    {
      "inputs": [
        {
          "internalType": "uint256",
          "name": "",
          "type": "uint256"
        }
      ],
      "name": "priceOf",
      "outputs": [
        {
          "internalType": "uint256",
          "name": "",
          "type": "uint256"
        }
      ],
      "stateMutability": "view",
      "type": "function"
    },
    {
      "inputs": [],
      "name": "renounceOwnership",
      "outputs": [],
      "stateMutability": "nonpayable",
      "type": "function"
    },
    {
      "inputs": [],
      "name": "sweep",
      "outputs": [],
      "stateMutability": "nonpayable",
      "type": "function"
    },
    {
      "inputs": [
        {
          "internalType": "address",
          "name": "newOwner",
          "type": "address"
        }
      ],
      "name": "transferOwnership",
      "outputs": [],
      "stateMutability": "nonpayable",
      "type": "function"
    },
    {
      "inputs": [
        {
          "internalType": "uint256",
          "name": "tokenId",
          "type": "uint256"
        }
      ],
      "name": "unlist",
      "outputs": [],
      "stateMutability": "nonpayable",
      "type": "function"
    }
  ],
  "bytecode": "0x60a060405234801561001057600080fd5b50604051610bb8380380610bb883398101604081905261002f9161012c565b6001600055806001600160a01b03811661006457604051631e4fbdf760e01b8152600060048201526024015b60405180910390fd5b61006d816100be565b506001600160a01b0382166100ac5760405162461bcd60e51b815260206004820152600560248201526406e66743d360dc1b604482015260640161005b565b506001600160a01b031660805261015f565b600180546001600160a01b038381166001600160a01b0319831681179093556040519116919082907f8be0079c531659141344cd1fd0a4f28419497f9722a3daafe3b4186f6b6457e090600090a35050565b80516001600160a01b038116811461012757600080fd5b919050565b6000806040838503121561013f57600080fd5b61014883610110565b915061015660208401610110565b90509250929050565b608051610a236101956000396000818160b4015281816102bd015281816103930152818161041001526107560152610a236000f3fe6080604052600436106100865760003560e01c80638da5cb5b116100595780638da5cb5b14610128578063b9186d7d14610146578063bf5a4dd314610181578063d96a094a146101a1578063f2fde38b146101b457600080fd5b806335faa4161461008b57806347ccca02146100a257806350fd7367146100f3578063715018a614610113575b600080fd5b34801561009757600080fd5b506100a06101d4565b005b3480156100ae57600080fd5b506100d67f000000000000000000000000000000000000000000000000000000000000000081565b6040516001600160a01b0390911681526020015b60405180910390f35b3480156100ff57600080fd5b506100a061010e36600461093a565b610287565b34801561011f57600080fd5b506100a0610588565b34801561013457600080fd5b506001546001600160a01b03166100d6565b34801561015257600080fd5b5061017361016136600461095c565b60026020526000908152604090205481565b6040519081526020016100ea565b34801561018d57600080fd5b506100a061019c36600461095c565b61059c565b6100a06101af36600461095c565b610627565b3480156101c057600080fd5b506100a06101cf36600461098a565b610856565b6101dc610891565b60006101f06001546001600160a01b031690565b6001600160a01b03164760405160006040518083038185875af1925050503d806000811461023a576040519150601f19603f3d011682016040523d82523d6000602084013e61023f565b606091505b50509050806102845760405162461bcd60e51b815260206004820152600c60248201526b1cddd9595c0819985a5b195960a21b60448201526064015b60405180910390fd5b50565b61028f610891565b6001546001600160a01b03166040516331a9108f60e11b8152600481018490526001600160a01b03918216917f00000000000000000000000000000000000000000000000000000000000000001690636352211e90602401602060405180830381865afa158015610304573d6000803e3d6000fd5b505050506040513d601f19601f8201168201806040525081019061032891906109ae565b6001600160a01b0316146103735760405162461bcd60e51b81526020600482015260126024820152713737ba1037bbb732b91037b3103a37b5b2b760711b604482015260640161027b565b60405163020604bf60e21b81526004810183905230906001600160a01b037f0000000000000000000000000000000000000000000000000000000000000000169063081812fc90602401602060405180830381865afa1580156103da573d6000803e3d6000fd5b505050506040513d601f19601f820116820180604052508101906103fe91906109ae565b6001600160a01b031614806104bd57507f00000000000000000000000000000000000000000000000000000000000000006001600160a01b031663e985e9c561044f6001546001600160a01b031690565b6040516001600160e01b031960e084901b1681526001600160a01b039091166004820152306024820152604401602060405180830381865afa158015610499573d6000803e3d6000fd5b505050506040513d601f19601f820116820180604052508101906104bd91906109cb565b6104fd5760405162461bcd60e51b81526020600482015260116024820152701cd85b19481b9bdd08185c1c1c9bdd9959607a1b604482015260640161027b565b600081116105375760405162461bcd60e51b8152602060048201526007602482015266070726963653d360cc1b604482015260640161027b565b600082815260026020526040908190208290555182907f1ea45e30b31292f9d7c5d37d275b2feca555f13f47dce0fdea2f47e8852ecd789061057c9084815260200190565b60405180910390a25050565b610590610891565b61059a60006108be565b565b6105a4610891565b6000818152600260205260409020546105ec5760405162461bcd60e51b815260206004820152600a6024820152691b9bdd081b1a5cdd195960b21b604482015260640161027b565b6000818152600260205260408082208290555182917f6318005f6dc5a71d3e4ad5b4d1fe455ef3402d62b64573777af55bb6bfe3daab91a250565b61062f610910565b600081815260026020526040902054806106785760405162461bcd60e51b815260206004820152600a6024820152691b9bdd081b1a5cdd195960b21b604482015260640161027b565b8034146106b35760405162461bcd60e51b815260206004820152600960248201526862616420707269636560b81b604482015260640161027b565b60006106c76001546001600160a01b031690565b6001600160a01b03163460405160006040518083038185875af1925050503d8060008114610711576040519150601f19603f3d011682016040523d82523d6000602084013e610716565b606091505b50509050806107545760405162461bcd60e51b815260206004820152600a6024820152691c185e4819985a5b195960b21b604482015260640161027b565b7f00000000000000000000000000000000000000000000000000000000000000006001600160a01b03166342842e0e6107956001546001600160a01b031690565b6040516001600160e01b031960e084901b1681526001600160a01b03909116600482015233602482015260448101869052606401600060405180830381600087803b1580156107e357600080fd5b505af11580156107f7573d6000803e3d6000fd5b505050600084815260026020526040808220919091555133915084907ffd51b2c9f55c42d2b72ac683526519563be02fc0107f034ff430c05185ff1b66906108429086815260200190565b60405180910390a350506102846001600055565b61085e610891565b6001600160a01b03811661088857604051631e4fbdf760e01b81526000600482015260240161027b565b610284816108be565b6001546001600160a01b0316331461059a5760405163118cdaa760e01b815233600482015260240161027b565b600180546001600160a01b038381166001600160a01b0319831681179093556040519116919082907f8be0079c531659141344cd1fd0a4f28419497f9722a3daafe3b4186f6b6457e090600090a35050565b60026000540361093357604051633ee5aeb560e01b815260040160405180910390fd5b6002600055565b6000806040838503121561094d57600080fd5b50508035926020909101359150565b60006020828403121561096e57600080fd5b5035919050565b6001600160a01b038116811461028457600080fd5b60006020828403121561099c57600080fd5b81356109a781610975565b9392505050565b6000602082840312156109c057600080fd5b81516109a781610975565b6000602082840312156109dd57600080fd5b815180151581146109a757600080fdfea2646970667358221220d69df5d666ad408522d341e37428b4a2b70aecea4ee063deb8a0c4dabd1ec37564736f6c63430008140033",
  "linkReferences": {},
  "deployedLinkReferences": {}
}