{
  "_format": "hh-sol-artifact-1",
  "contractName": "PSGTicketNFT",
  "sourceName": "contracts/PSGTicketNFT.sol",
  "abi": [
    {
      "inputs": [
        {
          "internalType": "string",
          "name": "name_",
          "type": "string"
        },
        {
          "internalType": "string",
          "name": "symbol_",
          "type": "string"
        },
        {
          "internalType": "string",
          "name": "baseURI_",
          "type": "string"
        },
        {
          "internalType": "address",
          "name": "initialOwner",
          "type": "address"
        },
        {
          "internalType": "address",
          "name": "initialMinter",
          "type": "address"
        }
      ],
      "stateMutability": "nonpayable",
      "type": "constructor"
    },
    {
      "inputs": [
        {
          "internalType": "address",
          "name": "sender",
          "type": "address"
        },
        {
          "internalType": "uint256",
          "name": "tokenId",
          "type": "uint256"
        },
        {
          "internalType": "address",
          "name": "owner",
          "type": "address"
        }
      ],
      "name": "ERC721IncorrectOwner",
      "type": "error"
    },
    {
      "inputs": [
        {
          "internalType": "address",
          "name": "operator",
          "type": "address"
        },
        {
          "internalType": "uint256",
          "name": "tokenId",
          "type": "uint256"
        }
      ],
      "name": "ERC721InsufficientApproval",
      "type": "error"
    },
    {
      "inputs": [
        {
          "internalType": "address",
          "name": "approver",
          "type": "address"
        }
      ],
      "name": "ERC721InvalidApprover",
      "type": "error"
    },
    {
      "inputs": [
        {
          "internalType": "address",
          "name": "operator",
          "type": "address"
        }
      ],
      "name": "ERC721InvalidOperator",
      "type": "error"
    },
    {
      "inputs": [
        {
          "internalType": "address",
          "name": "owner",
          "type": "address"
        }
      ],
      "name": "ERC721InvalidOwner",
      "type": "error"
    },
    {
      "inputs": [
        {
          "internalType": "address",
          "name": "receiver",
          "type": "address"
        }
      ],
      "name": "ERC721InvalidReceiver",
      "type": "error"
    },
    {
      "inputs": [
        {
          "internalType": "address",
          "name": "sender",
          "type": "address"
        }
      ],
      "name": "ERC721InvalidSender",
      "type": "error"
    },
    {
      "inputs": [
        {
          "internalType": "uint256",
          "name": "tokenId",
          "type": "uint256"
        }
      ],
      "name": "ERC721NonexistentToken",
      "type": "error"
    },
    {
      "inputs": [
        {
          "internalType": "address",
          "name": "owner",
          "type": "address"
        }
      ],
      "name": "OwnableInvalidOwner",
      "type": "error"
    },
    {
      "inputs": [
        {
          "internalType": "address",
          "name": "account",
          "type": "address"
        }
      ],
      "name": "OwnableUnauthorizedAccount",
      "type": "error"
    },
    {
      "anonymous": false,
      "inputs": [
        {
          "indexed": true,
          "internalType": "address",
          "name": "owner",
          "type": "address"
        },
        {
          "indexed": true,
          "internalType": "address",
          "name": "approved",
          "type": "address"
        },
        {
          "indexed": true,
          "internalType": "uint256",
          "name": "tokenId",
          "type": "uint256"
        }
      ],
      "name": "Approval",
      "type": "event"
    },
    {
      "anonymous": false,
      "inputs": [
        {
          "indexed": true,
          "internalType": "address",
          "name": "owner",
          "type": "address"
        },
        {
          "indexed": true,
          "internalType": "address",
          "name": "operator",
          "type": "address"
        },
        {
          "indexed": false,
          "internalType": "bool",
          "name": "approved",
          "type": "bool"
        }
      ],
      "name": "ApprovalForAll",
      "type": "event"
    },
    {
      "anonymous": false,
      "inputs": [
        {
          "indexed": false,
          "internalType": "string",
          "name": "newBaseURI",
          "type": "string"
        }
      ],
      "name": "BaseURISet",
      "type": "event"
    },
    {
      "anonymous": false,
      "inputs": [
        {
          "indexed": false,
          "internalType": "uint256",
          "name": "_fromTokenId",
          "type": "uint256"
        },
        {
          "indexed": false,
          "internalType": "uint256",
          "name": "_toTokenId",
          "type": "uint256"
        }
      ],
      "name": "BatchMetadataUpdate",
      "type": "event"
    },
    {
      "anonymous": false,
      "inputs": [
        {
          "indexed": false,
          "internalType": "uint256",
          "name": "_tokenId",
          "type": "uint256"
        }
      ],
      "name": "MetadataUpdate",
      "type": "event"
    },
    {
      "anonymous": false,
      "inputs": [
        {
          "indexed": true,
          "internalType": "address",
          "name": "to",
          "type": "address"
        },
        {
          "indexed": true,
          "internalType": "uint256",
          "name": "tokenId",
          "type": "uint256"
        },
        {
          "indexed": false,
          "internalType": "string",
          "name": "seatLabel",
          "type": "string"
        }
      ],
      "name": "Minted",
      "type": "event"
    },
    {
      "anonymous": false,
      "inputs": [
        {
          "indexed": true,
          "internalType": "address",
          "name": "newMinter",
          "type": "address"
        }
      ],
      "name": "MinterUpdated",
      "type": "event"
    },
    {
      "anonymous": false,
      "inputs": [
        {
          "indexed": true,
          "internalType": "address",
          "name": "previousOwner",
          "type": "address"
        },
        {
          "indexed": true,
          "internalType": "address",
          "name": "newOwner",
          "type": "address"
        }
      ],
      "name": "OwnershipTransferred",
      "type": "event"
    },
    {
      "anonymous": false,
      "inputs": [
        {
          "indexed": true,
          "internalType": "address",
          "name": "from",
          "type": "address"
        },
        {
          "indexed": true,
          "internalType": "address",
          "name": "to",
          "type": "address"
        },
        {
          "indexed": true,
          "internalType": "uint256",
          "name": "tokenId",
          "type": "uint256"
        }
      ],
      "name": "Transfer",
      "type": "event"
    },
    {
      "inputs": [
        {
          "internalType": "address",
          "name": "to",
          "type": "address"
        },
        {
          "internalType": "uint256",
          "name": "tokenId",
          "type": "uint256"
        }
      ],
      "name": "approve",
      "outputs": [],
      "stateMutability": "nonpayable",
      "type": "function"
    },
    {
      "inputs": [
        {
          "internalType": "address",
          "name": "owner",
          "type": "address"
        }
      ],
      "name": "balanceOf",
      "outputs": [
        {
          "internalType": "uint256",
          "name": "",
          "type": "uint256"
        }
      ],
      "stateMutability": "view",
      "type": "function"
    },
    {
      "inputs": [],
      "name": "baseTokenURI",
      "outputs": [
        {
          "internalType": "string",
          "name": "",
          "type": "string"
        }
      ],
      "stateMutability": "view",
      "type": "function"
    },
    {
      "inputs": [
        {
          "internalType": "address",
          "name": "to",
          "type": "address"
        },
        {
          "internalType": "string[]",
          "name": "seatLabels",
          "type": "string[]"
        }
      ],
      "name": "batchMintWithSeats",
      "outputs": [],
      "stateMutability": "nonpayable",
      "type": "function"
    },
    {
      "inputs": [
        {
          "internalType": "uint256",
          "name": "tokenId",
          "type": "uint256"
        }
      ],
      "name": "getApproved",
      "outputs": [
        {
          "internalType": "address",
          "name": "",
          "type": "address"
        }
      ],
      "stateMutability": "view",
      "type": "function"
    },
    {
      "inputs": [
        {
          "internalType": "address",
          "name": "owner",
          "type": "address"
        },
        {
          "internalType": "address",
          "name": "operator",
          "type": "address"
        }
      ],
      "name": "isApprovedForAll",
      "outputs": [
        {
          "internalType": "bool",
          "name": "",
          "type": "bool"
        }
      ],
      "stateMutability": "view",
      "type": "function"
    },
    {
      "inputs": [
        {
          "internalType": "address",
          "name": "to",
          "type": "address"
        },
        {
          "internalType": "string",
          "name": "seatLabel",
          "type": "string"
        }
      ],
      "name": "mintWithSeat",
      "outputs": [
        {
          "internalType": "uint256",
          "name": "tokenId",
          "type": "uint256"
        }
      ],
      "stateMutability": "nonpayable",
      "type": "function"
    },
    {
      "inputs": [],
      "name": "minter",
      "outputs": [
        {
          "internalType": "address",
          "name": "",
          "type": "address"
        }
      ],
      "stateMutability": "view",
      "type": "function"
    },
    {
      "inputs": [],
      "name": "name",
      "outputs": [
        {
          "internalType": "string",
          "name": "",
          "type": "string"
        }
      ],
      "stateMutability": "view",
      "type": "function"
    },
    {
      "inputs": [],
      "name": "nextTokenId",
      "outputs": [
        {
          "internalType": "uint256",
          "name": "",
          "type": "uint256"
        }
      ],
      "stateMutability": "view",
      "type": "function"
    },
    {
      "inputs": [],
      "name": "owner",
      "outputs": [
        {
          "internalType": "address",
          "name": "",
          "type": "address"
        }
      ],
      "stateMutability": "view",
      "type": "function"
    },
    {
      "inputs": [
        {
          "internalType": "uint256",
          "name": "tokenId",
          "type": "uint256"
        }
      ],
      "name": "ownerOf",
      "outputs": [
        {
          "internalType": "address",
          "name": "",
          "type": "address"
        }
      ],
      "stateMutability": "view",
      "type": "function"
    },
    {
      "inputs": [],
      "name": "renounceOwnership",
      "outputs": [],
      "stateMutability": "nonpayable",
      "type": "function"
    },
    {
      "inputs": [
        {
          "internalType": "address",
          "name": "from",
          "type": "address"
        },
        {
          "internalType": "address",
          "name": "to",
          "type": "address"
        },
        {
          "internalType": "uint256",
          "name": "tokenId",
          "type": "uint256"
        }
      ],
      "name": "safeTransferFrom",
      "outputs": [],
      "stateMutability": "nonpayable",
      "type": "function"
    },
    {
      "inputs": [
        {
          "internalType": "address",
          "name": "from",
          "type": "address"
        },
        {
          "internalType": "address",
          "name": "to",
          "type": "address"
        },
        {
          "internalType": "uint256",
          "name": "tokenId",
          "type": "uint256"
        },
        {
          "internalType": "bytes",
          "name": "data",
          "type": "bytes"
        }
      ],
      "name": "safeTransferFrom",
      "outputs": [],
      "stateMutability": "nonpayable",
      "type": "function"
    },
    {
      "inputs": [
        {
          "internalType": "address",
          "name": "operator",
          "type": "address"
        },
        {
          "internalType": "bool",
          "name": "approved",
          "type": "bool"
        }
      ],
      "name": "setApprovalForAll",
      "outputs": [],
      "stateMutability": "nonpayable",
      "type": "function"
    },
    {
      "inputs": [
        {
          "internalType": "string",
          "name": "newBaseURI",
          "type": "string"
        }
      ],
      "name": "setBaseURI",
      "outputs": [],
      "stateMutability": "nonpayable",
      "type": "function"
    },
    {
      "inputs": [
        {
          "internalType": "address",
          "name": "newMinter",
          "type": "address"
        }
      ],
      "name": "setMinter",
      "outputs": [],
      "stateMutability": "nonpayable",
      "type": "function"
    },
    {
      "inputs": [
        {
          "internalType": "bytes4",
          "name": "interfaceId",
          "type": "bytes4"
        }
      ],
      "name": "supportsInterface",
      "outputs": [
        {
          "internalType": "bool",
          "name": "",
          "type": "bool"
        }
      ],
      "stateMutability": "view",
      "type": "function"
    },
    {
      "inputs": [],
      "name": "symbol",
      "outputs": [
        {
          "internalType": "string",
          "name": "",
          "type": "string"
        }
      ],
      "stateMutability": "view",
      "type": "function"
    },
    {
      "inputs": [
        {
          "internalType": "uint256",
          "name": "tokenId",
          "type": "uint256"
        }
      ],
      "name": "tokenURI",
      "outputs": [
        {
          "internalType": "string",
          "name": "",
          "type": "string"
        }
      ],
      "stateMutability": "view",
      "type": "function"
    },
    {
      "inputs": [],
      "name": "totalMinted",
      "outputs": [
        {
          "internalType": "uint256",
          "name": "",
          "type": "uint256"
        }
      ],
      "stateMutability": "view",
      "type": "function"
    },
    {
      "inputs": [
        {
          "internalType": "address",
          "name": "from",
          "type": "address"
        },
        {
          "internalType": "address",
          "name": "to",
          "type": "address"
        },
        {
          "internalType": "uint256",
          "name": "tokenId",
          "type": "uint256"
        }
      ],
      "name": "transferFrom",
      "outputs": [],
      "stateMutability": "nonpayable",
      "type": "function"
    },
    {
      "inputs": [
        {
          "internalType": "address",
          "name": "newOwner",
          "type": "address"
        }
      ],
      "name": "transferOwnership",
      "outputs": [],
      "stateMutability": "nonpayable",
      "type": "function"
    }
  ],
  "bytecode": "0x60806040523480156200001157600080fd5b5060405162001e4638038062001e46833981016040819052620000349162000271565b8185856000620000458382620003b7565b506001620000548282620003b7565b5050506001600160a01b0381166200008657604051631e4fbdf760e01b81526000600482015260240160405180910390fd5b620000918162000135565b50600a620000a08482620003b7565b50600980546001600160a01b0319166001600160a01b0383161790556040517ff9c7803e94e0d3c02900d8a90893a6d5e90dd04d32a4cfe825520f82bf9f32f690620000ee90859062000483565b60405180910390a16040516001600160a01b038216907fad0f299ec81a386c98df0ac27dae11dd020ed1b56963c53a7292e7a3a314539a90600090a25050505050620004b8565b600780546001600160a01b038381166001600160a01b0319831681179093556040519116919082907f8be0079c531659141344cd1fd0a4f28419497f9722a3daafe3b4186f6b6457e090600090a35050565b634e487b7160e01b600052604160045260246000fd5b60005b83811015620001ba578181015183820152602001620001a0565b50506000910152565b600082601f830112620001d557600080fd5b81516001600160401b0380821115620001f257620001f262000187565b604051601f8301601f19908116603f011681019082821181831017156200021d576200021d62000187565b816040528381528660208588010111156200023757600080fd5b6200024a8460208301602089016200019d565b9695505050505050565b80516001600160a01b03811681146200026c57600080fd5b919050565b600080600080600060a086880312156200028a57600080fd5b85516001600160401b0380821115620002a257600080fd5b620002b089838a01620001c3565b96506020880151915080821115620002c757600080fd5b620002d589838a01620001c3565b95506040880151915080821115620002ec57600080fd5b50620002fb88828901620001c3565b9350506200030c6060870162000254565b91506200031c6080870162000254565b90509295509295909350565b600181811c908216806200033d57607f821691505b6020821081036200035e57634e487b7160e01b600052602260045260246000fd5b50919050565b601f821115620003b257600081815260208120601f850160051c810160208610156200038d5750805b601f850160051c820191505b81811015620003ae5782815560010162000399565b5050505b505050565b81516001600160401b03811115620003d357620003d362000187565b620003eb81620003e4845462000328565b8462000364565b602080601f8311600181146200042357600084156200040a5750858301515b600019600386901b1c1916600185901b178555620003ae565b600085815260208120601f198616915b82811015620004545788860151825594840194600190910190840162000433565b5085821015620004735787850151600019600388901b60f8161c191681555b5050505050600190811b01905550565b6020815260008251806020840152620004a48160408501602087016200019d565b601f01601f19169190910160400192915050565b61197e80620004c86000396000f3fe608060405234801561001057600080fd5b50600436106101585760003560e01c806375794a3c116100c3578063c87b56dd1161007c578063c87b56dd146102c5578063d547cfb7146102d8578063e985e9c5146102e0578063f2fde38b146102f3578063f5f7144714610306578063fca3b5aa1461031957600080fd5b806375794a3c146102755780638da5cb5b1461027e57806395d89b411461028f578063a22cb46514610297578063a2309ff8146102aa578063b88d4fde146102b257600080fd5b806323b872dd1161011557806323b872dd1461020057806342842e0e1461021357806355f804b3146102265780636352211e1461023957806370a082311461024c578063715018a61461026d57600080fd5b806301ffc9a71461015d57806306fdde0314610185578063075461721461019a578063081812fc146101c5578063095ea7b3146101d85780631c9bfe8f146101ed575b600080fd5b61017061016b366004611186565b61032c565b60405190151581526020015b60405180910390f35b61018d610357565b60405161017c91906111f3565b6009546101ad906001600160a01b031681565b6040516001600160a01b03909116815260200161017c565b6101ad6101d3366004611206565b6103e9565b6101eb6101e636600461123b565b610412565b005b6101eb6101fb366004611265565b610421565b6101eb61020e3660046112eb565b6104b9565b6101eb6102213660046112eb565b61053e565b6101eb610234366004611370565b61055e565b6101ad610247366004611206565b6105b1565b61025f61025a3660046113b2565b6105bc565b60405190815260200161017c565b6101eb610604565b61025f60085481565b6007546001600160a01b03166101ad565b61018d610618565b6101eb6102a53660046113cd565b610627565b60085461025f565b6101eb6102c036600461141f565b610632565b61018d6102d3366004611206565b61064a565b61018d61075b565b6101706102ee3660046114fb565b61076a565b6101eb6103013660046113b2565b610798565b61025f61031436600461152e565b6107d6565b6101eb6103273660046113b2565b6108b9565b60006001600160e01b03198216632483248360e11b148061035157506103518261090b565b92915050565b60606000805461036690611581565b80601f016020809104026020016040519081016040528092919081815260200182805461039290611581565b80156103df5780601f106103b4576101008083540402835291602001916103df565b820191906000526020600020905b8154815290600101906020018083116103c257829003601f168201915b5050505050905090565b60006103f48261095b565b506000828152600460205260409020546001600160a01b0316610351565b61041d828233610994565b5050565b6009546001600160a01b0316331461046d5760405162461bcd60e51b815260206004820152600a6024820152693737ba1036b4b73a32b960b11b60448201526064015b60405180910390fd5b60005b818110156104b3576104a08484848481811061048e5761048e6115bb565b905060200281019061031491906115d1565b50806104ab81611618565b915050610470565b50505050565b6001600160a01b0382166104e357604051633250574960e11b815260006004820152602401610464565b60006104f08383336109a1565b9050836001600160a01b0316816001600160a01b0316146104b3576040516364283d7b60e01b81526001600160a01b0380861660048301526024820184905282166044820152606401610464565b61055983838360405180602001604052806000815250610632565b505050565b610566610a9a565b600a610573828483611685565b507ff9c7803e94e0d3c02900d8a90893a6d5e90dd04d32a4cfe825520f82bf9f32f682826040516105a5929190611745565b60405180910390a15050565b60006103518261095b565b60006001600160a01b0382166105e8576040516322718ad960e21b815260006004820152602401610464565b506001600160a01b031660009081526003602052604090205490565b61060c610a9a565b6106166000610ac7565b565b60606001805461036690611581565b61041d338383610b19565b61063d8484846104b9565b6104b33385858585610bb8565b60606106558261095b565b506000828152600660205260408120805461066f90611581565b80601f016020809104026020016040519081016040528092919081815260200182805461069b90611581565b80156106e85780601f106106bd576101008083540402835291602001916106e8565b820191906000526020600020905b8154815290600101906020018083116106cb57829003601f168201915b50505050509050600061070660408051602081019091526000815290565b90508051600003610718575092915050565b81511561074a578082604051602001610732929190611774565b60405160208183030381529060405292505050919050565b61075384610ce3565b949350505050565b6060600a805461036690611581565b6001600160a01b03918216600090815260056020908152604080832093909416825291909152205460ff1690565b6107a0610a9a565b6001600160a01b0381166107ca57604051631e4fbdf760e01b815260006004820152602401610464565b6107d381610ac7565b50565b6009546000906001600160a01b031633146108205760405162461bcd60e51b815260206004820152600a6024820152693737ba1036b4b73a32b960b11b6044820152606401610464565b6008805490600061083083611618565b9190505590506108408482610d58565b61086e81600a858560405160200161085a939291906117a3565b604051602081830303815290604052610d72565b80846001600160a01b03167fe7cd4ce7f2a465edc730269a1305e8a48bad821e8fb7e152ec413829c01a53c485856040516108aa929190611745565b60405180910390a39392505050565b6108c1610a9a565b600980546001600160a01b0319166001600160a01b0383169081179091556040517fad0f299ec81a386c98df0ac27dae11dd020ed1b56963c53a7292e7a3a314539a90600090a250565b60006001600160e01b031982166380ac58cd60e01b148061093c57506001600160e01b03198216635b5e139f60e01b145b8061035157506301ffc9a760e01b6001600160e01b0319831614610351565b6000818152600260205260408120546001600160a01b03168061035157604051637e27328960e01b815260048101849052602401610464565b6105598383836001610dbb565b6000828152600260205260408120546001600160a01b03908116908316156109ce576109ce818486610ec1565b6001600160a01b03811615610a0c576109eb600085600080610dbb565b6001600160a01b038116600090815260036020526040902080546000190190555b6001600160a01b03851615610a3b576001600160a01b0385166000908152600360205260409020805460010190555b60008481526002602052604080822080546001600160a01b0319166001600160a01b0389811691821790925591518793918516917fddf252ad1be2c89b69c2b068fc378daa952ba7f163c4a11628f55a4df523b3ef91a4949350505050565b6007546001600160a01b031633146106165760405163118cdaa760e01b8152336004820152602401610464565b600780546001600160a01b038381166001600160a01b0319831681179093556040519116919082907f8be0079c531659141344cd1fd0a4f28419497f9722a3daafe3b4186f6b6457e090600090a35050565b6001600160a01b038216610b4b57604051630b61174360e31b81526001600160a01b0383166004820152602401610464565b6001600160a01b03838116600081815260056020908152604080832094871680845294825291829020805460ff191686151590811790915591519182527f17307eab39ab6107e8899845ad3d59bd9653f200f220920489ca2b5937696c31910160405180910390a3505050565b6001600160a01b0383163b15610cdc57604051630a85bd0160e11b81526001600160a01b0384169063150b7a0290610bfa90889088908790879060040161182e565b6020604051808303816000875af1925050508015610c35575060408051601f3d908101601f19168201909252610c329181019061186b565b60015b610c9e573d808015610c63576040519150601f19603f3d011682016040523d82523d6000602084013e610c68565b606091505b508051600003610c9657604051633250574960e11b81526001600160a01b0385166004820152602401610464565b805160208201fd5b6001600160e01b03198116630a85bd0160e11b14610cda57604051633250574960e11b81526001600160a01b0385166004820152602401610464565b505b5050505050565b6060610cee8261095b565b506000610d0660408051602081019091526000815290565b90506000815111610d265760405180602001604052806000815250610d51565b80610d3084610f25565b604051602001610d41929190611774565b6040516020818303038152906040525b9392505050565b61041d828260405180602001604052806000815250610fb8565b6000828152600660205260409020610d8a8282611888565b506040518281527ff8e1a15aba9398e019f0b49df1a4fde98ee17ae345cb5f6b5e2c27f5033e8ce7906020016105a5565b8080610dcf57506001600160a01b03821615155b15610e91576000610ddf8461095b565b90506001600160a01b03831615801590610e0b5750826001600160a01b0316816001600160a01b031614155b8015610e1e5750610e1c818461076a565b155b15610e475760405163a9fbf51f60e01b81526001600160a01b0384166004820152602401610464565b8115610e8f5783856001600160a01b0316826001600160a01b03167f8c5be1e5ebec7d5bd14f71427d1e84f3dd0314c0f7b2291e5b200ac8c7c3b92560405160405180910390a45b505b5050600090815260046020526040902080546001600160a01b0319166001600160a01b0392909216919091179055565b610ecc838383610fd0565b610559576001600160a01b038316610efa57604051637e27328960e01b815260048101829052602401610464565b60405163177e802f60e01b81526001600160a01b038316600482015260248101829052604401610464565b60606000610f3283611033565b600101905060008167ffffffffffffffff811115610f5257610f52611409565b6040519080825280601f01601f191660200182016040528015610f7c576020820181803683370190505b5090508181016020015b600019016f181899199a1a9b1b9c1cb0b131b232b360811b600a86061a8153600a8504945084610f8657509392505050565b610fc2838361110b565b610559336000858585610bb8565b60006001600160a01b038316158015906107535750826001600160a01b0316846001600160a01b0316148061100a575061100a848461076a565b806107535750506000908152600460205260409020546001600160a01b03908116911614919050565b60008072184f03e93ff9f4daa797ed6e38ed64bf6a1f0160401b83106110725772184f03e93ff9f4daa797ed6e38ed64bf6a1f0160401b830492506040015b6d04ee2d6d415b85acef8100000000831061109e576d04ee2d6d415b85acef8100000000830492506020015b662386f26fc1000083106110bc57662386f26fc10000830492506010015b6305f5e10083106110d4576305f5e100830492506008015b61271083106110e857612710830492506004015b606483106110fa576064830492506002015b600a83106103515760010192915050565b6001600160a01b03821661113557604051633250574960e11b815260006004820152602401610464565b6000611143838360006109a1565b90506001600160a01b03811615610559576040516339e3563760e11b815260006004820152602401610464565b6001600160e01b0319811681146107d357600080fd5b60006020828403121561119857600080fd5b8135610d5181611170565b60005b838110156111be5781810151838201526020016111a6565b50506000910152565b600081518084526111df8160208601602086016111a3565b601f01601f19169290920160200192915050565b602081526000610d5160208301846111c7565b60006020828403121561121857600080fd5b5035919050565b80356001600160a01b038116811461123657600080fd5b919050565b6000806040838503121561124e57600080fd5b6112578361121f565b946020939093013593505050565b60008060006040848603121561127a57600080fd5b6112838461121f565b9250602084013567ffffffffffffffff808211156112a057600080fd5b818601915086601f8301126112b457600080fd5b8135818111156112c357600080fd5b8760208260051b85010111156112d857600080fd5b6020830194508093505050509250925092565b60008060006060848603121561130057600080fd5b6113098461121f565b92506113176020850161121f565b9150604084013590509250925092565b60008083601f84011261133957600080fd5b50813567ffffffffffffffff81111561135157600080fd5b60208301915083602082850101111561136957600080fd5b9250929050565b6000806020838503121561138357600080fd5b823567ffffffffffffffff81111561139a57600080fd5b6113a685828601611327565b90969095509350505050565b6000602082840312156113c457600080fd5b610d518261121f565b600080604083850312156113e057600080fd5b6113e98361121f565b9150602083013580151581146113fe57600080fd5b809150509250929050565b634e487b7160e01b600052604160045260246000fd5b6000806000806080858703121561143557600080fd5b61143e8561121f565b935061144c6020860161121f565b925060408501359150606085013567ffffffffffffffff8082111561147057600080fd5b818701915087601f83011261148457600080fd5b81358181111561149657611496611409565b604051601f8201601f19908116603f011681019083821181831017156114be576114be611409565b816040528281528a60208487010111156114d757600080fd5b82602086016020830137600060208483010152809550505050505092959194509250565b6000806040838503121561150e57600080fd5b6115178361121f565b91506115256020840161121f565b90509250929050565b60008060006040848603121561154357600080fd5b61154c8461121f565b9250602084013567ffffffffffffffff81111561156857600080fd5b61157486828701611327565b9497909650939450505050565b600181811c9082168061159557607f821691505b6020821081036115b557634e487b7160e01b600052602260045260246000fd5b50919050565b634e487b7160e01b600052603260045260246000fd5b6000808335601e198436030181126115e857600080fd5b83018035915067ffffffffffffffff82111561160357600080fd5b60200191503681900382131561136957600080fd5b60006001820161163857634e487b7160e01b600052601160045260246000fd5b5060010190565b601f82111561055957600081815260208120601f850160051c810160208610156116665750805b601f850160051c820191505b81811015610cda57828155600101611672565b67ffffffffffffffff83111561169d5761169d611409565b6116b1836116ab8354611581565b8361163f565b6000601f8411600181146116e557600085156116cd5750838201355b600019600387901b1c1916600186901b178355610cdc565b600083815260209020601f19861690835b8281101561171657868501358255602094850194600190920191016116f6565b50868210156117335760001960f88860031b161c19848701351681555b505060018560011b0183555050505050565b60208152816020820152818360408301376000818301604090810191909152601f909201601f19160101919050565b600083516117868184602088016111a3565b83519083019061179a8183602088016111a3565b01949350505050565b60008085546117b181611581565b600182811680156117c957600181146117de5761180d565b60ff198416875282151583028701945061180d565b8960005260208060002060005b858110156118045781548a8201529084019082016117eb565b50505082870194505b505050508385823764173539b7b760d91b9301928352505060050192915050565b6001600160a01b0385811682528416602082015260408101839052608060608201819052600090611861908301846111c7565b9695505050505050565b60006020828403121561187d57600080fd5b8151610d5181611170565b815167ffffffffffffffff8111156118a2576118a2611409565b6118b6816118b08454611581565b8461163f565b602080601f8311600181146118eb57600084156118d35750858301515b600019600386901b1c1916600185901b178555610cda565b600085815260208120601f198616915b8281101561191a578886015182559484019460019091019084016118fb565b50858210156119385787850151600019600388901b60f8161c191681555b5050505050600190811b0190555056fea2646970667358221220b8f20ea1d7dde8c8bc6fa4309945ea95752811a94eeae3861dcc1f8717affd1964736f6c63430008140033",
  "linkReferences": {},
  "deployedLinkReferences": {}
}